:10000000084C00201910000069100000B10E00001B
:10001000B10E0000B10E0000B10E0000B10E0000E4
:10002000B10E0000B10E0000B10E0000B10A0000D8
:10003000B10E0000B10E00006D0A0000B10E00000C
:10004000DD0F000027680100DD0F0000DD0F00005C
:10005000DD0F0000DD0F0000DD0F0000DD0F0000F0
:10006000DD0F0000DD0F0000DD0F0000DD0F0000E0
:10007000DD0F0000DD0F0000DD0F0000DD0F0000D0
:10008000DD0F0000DD0F0000DD0F0000DD0F0000C0
:10009000DD0F0000DD0F0000DD0F0000DD0F0000B0
:1000A000DD0F0000DD0F0000DD0F0000DD0F0000A0
:1000B000DD0F0000DD0F0000DD0F0000DD0F000090
:1000C000DD0F0000DD0F0000DD0F0000DD0F000080
:1000D000DD0F0000DD0F0000DD0F0000000000005C
:1000E0006D2B000000000000290E00000000000041
:1000F000290E000000000000290E00000000000092
:10010000290E000000000000290E0000346B0020C2
:10011000A131000000000000290E000000000000D6
:10012000290E000000000000290E00000000000061
:10013000290E000000000000E96701000000000037
:10014000290E0000000000002368010000000000EC
:10015000290E000000000000290E00000000000031
:10016000290E0000000000007534000000000000AF
:10017000290E000000000000290E00000000000011
:10018000290E000000000000290E00000000000001
:10019000290E000000000000290E000000000000F1
:1001A0001D68010000000000290E00000000000092
:1001B000290E000000000000290E000000000000D1
:1001C000290E000000000000290E000000000000C1
:1001D000290E000000000000290E000000000000B1
:1001E000290E000000000000290E000000000000A1
:1001F000290E000000000000290E00000000000091
:10020000290E000000000000290E00000000000080
:10021000290E00009140031C90409C46203A9340D8
:10022000194352426346D340194370477BB972B9B0
:100230000029BEBF00204FF0004106E008BF0028A3
:100240001CBF6FF000414FF0FF3000F0D9B9ADF1A5
:10025000080C6DE904CE002909DB002B1ADB00F045
:1002600061F8DDF804E0DDE9022304B070474042A4
:1002700061EB4101002B1BDB00F054F8DDF804E0DA
:10028000DDE9022304B0404261EB4101524263EBDD
:1002900043037047524263EB430300F043F8DDF839
:1002A00004E0DDE9022304B0404261EB4101704704
:1002B000524263EB430300F035F8DDF804E0DDE97A
:1002C000022304B0524263EB4303704753B94AB967
:1002D000002908BF00281CBF4FF0FF314FF0FF304E
:1002E00000F08EB9ADF1080C6DE904CE00F01AF8FB
:1002F000DDF804E0DDE9022304B07047430803F0B1
:100300005533C01A830803F0333300F033301844F8
:1003100000EB101000F00F3000EB002000EB00406D
:10032000000E70472DE9F0478C460D460446089EA6
:10033000002B51D18A4217466DD9B2FA82FEBEF126
:10034000000F0BD0CEF1200C01FA0EF520FA0CFCB8
:1003500002FA0EF74CEA050C00FA0EF44FEA174ABF
:10036000250CBCFBFAF81FFA87F90AFB18CC45EA02
:100370000C4508FB09F3AB420AD9ED1908F1FF322D
:1003800080F02381AB4240F22081A8F102083D4475
:10039000ED1AA4B2B5FBFAF00AFB105544EA054485
:1003A00000FB09F9A14509D9E41900F1FF3380F0F8
:1003B0000A81A14540F2078102383C44A4EB0904BC
:1003C00040EA08400021002E61D024FA0EF40023F8
:1003D00034607360BDE8F0878B4207D9002E54D09B
:1003E000002186E821000846BDE8F087B3FA83F1D2
:1003F000002940F08E80AB4202D3824200F2FA80A4
:10040000841A65EB03050120AC46002E3FD086E838
:100410001010BDE8F08712B90127B7FBF2F7B7FA61
:1004200087FEBEF1000F34D1EB1B3A0C1FFA87FC9C
:100430000121B3FBF2F8250C02FB183345EA034512
:100440000CFB08F3AB4207D9ED1908F1FF3002D2DB
:10045000AB4200F2D1808046ED1AA3B2B5FBF2F0B8
:1004600002FB105543EA05440CFB00FCA44507D9E8
:10047000E41900F1FF3302D2A44500F2B880184617
:10048000A4EB0C0440EA08409DE731463046BDE845
:10049000F087CEF1200405FA0EF307FA0EF720FAE2
:1004A00004F83A0C25FA04F448EA0308B4FBF2F124
:1004B0004FEA184502FB11441FFA87FC45EA044540
:1004C00001FB0CF3AB4200FA0EF409D9ED1901F16E
:1004D000FF3080F08A80AB4240F2878002393D4491
:1004E000EB1A1FFA88F5B3FBF2F002FB103345EA72
:1004F000034500FB0CF3AB4207D9ED1900F1FF38BF
:100500006FD2AB426DD902383D44EB1A40EA01414B
:100510008FE7C1F1200722FA07F88B4005FA01F4B2
:1005200048EA030320FA07FE4FEA134CFD404EEA67
:10053000040EB5FBFCF94FEA1E440CFB19551FFADB
:1005400083F844EA054509FB08F4AC4202FA01F2DB
:1005500000FA01FA08D9ED1809F1FF3043D2AC4294
:1005600041D9A9F102091D442D1B1FFA8EFEB5FBCE
:10057000FCF00CFB10554EEA054400FB08F8A045C2
:1005800007D9E41800F1FF3529D2A04527D9023850
:100590001C4440EA0940A4EB0804A0FB02894C4536
:1005A000C6464D4615D312D056B1BAEB0E0364EBD6
:1005B000050404FA07F7CB401F43CC403760746052
:1005C0000021BDE8F0871846F8E69046E0E6C2450F
:1005D000EAD2B8EB020E69EB03050138E4E72846DE
:1005E000D7E7404691E78146BEE7014678E7023803
:1005F0003C4445E7084608E7A8F102083D442BE7DC
:10060000704700BF02460346981A13F8011B0029E1
:10061000FAD170470138013910F8013F11F8012F64
:10062000934202D1002BF7D11A46981A704770B541
:1006300082B1013A0C46034603D11A782078101A89
:1006400070BD1E782578AE4200F1010001F1010174
:10065000EFD0F2E7104670BD81EA000313F0030FFC
:1006600070B503460BD0013B0A4491421BD170BDCB
:10067000002AFCD011F8014B03F8014B013A9C070A
:10068000F6D11E1F0D46541B0C44032C06D822F035
:1006900003042144234402F00302E4E755F8044B29
:1006A00046F8044FEFE711F8014B03F8014FDCE780
:1006B00070B5C9B203469C0711D141EA012444EA4E
:1006C00004441E46951B1D44032D0ED822F003043E
:1006D000234402F003021A44934209D170BD002A58
:1006E000FCD003F8011B013AE5E746F8044BE9E7C3
:1006F00003F8011BF0E7704738B5054607480C467C
:1007000000F08CFE2946064800F088FE2146054888
:1007100000F084FE044B1C8038BD00BF58950100DA
:10072000719501007D9501000000002008B5024888
:1007300000F074FE002008BD1995010010B50A48AC
:10074000144600F06BFE204617F097FA0146074862
:1007500000F064FE204617F090FABDE81040014614
:10076000034800F05BBE00BFB8950100D0950100C2
:10077000E395010038B5104B1B88DBB10F4C636A61
:100780001D6948F2312128460AF04CFB42F61F2130
:10079000284617F00EFA04F11C000AF09DFB0146F2
:1007A00020B10748BDE8384000F038BE48F231219A
:1007B0000448F7E738BD00BF00000020C05D0020FE
:1007C000FA9501002D96010008B5014620B10C48AC
:1007D000BDE8084000F022BE0A4800F01FFE0A49AA
:1007E0000A4807F0A1F8014608B10948F0E70320DC
:1007F00007F080F80748BDE8084000F00FBE00BFD2
:100800007C9401009C940100E89401002C95010067
:10081000B3940100D69401000949BFF35B8F51E8FE
:10082000003F43F0010241E800200028F7D1BFF368
:100830005B8FDB0703D40839024817F096BC70477A
:1008400040000020D81D002008B5154BBFF35B8F7A
:1008500003F1080252E8001F21F0010142E80010F4
:100860000028F7D1BFF35B8F0E4A5A600E490F483C
:10087000002218F07DFB0E4800F0D0FD0D4804F07A
:1008800023FA014610B10C4800F0C8FD41F288324D
:100890004CF250310548BDE8084018F07DBB00BF60
:1008A000380000207507000019080000040000202F
:1008B00008950100C90700007C9401000C4B1B78CF
:1008C000062B12D10B4B186810F00F000DD104331A
:1008D0001B6803F0F003302B08D1074B1B6813F0A3
:1008E000F00F0CBF0120002070470020704700BFB0
:1008F000E00F00F0E40F00F0EC0F00F008B54FF04F
:100900002003EFF3118183F31188FFF7D7FF20B1A4
:100910003B4AD36823F08073D360FFF7CFFF10B159
:10092000384B03221A60FFF7C9FF30B14FF0804304
:100930000022C3F80C21C3F81021334B1B78062B7F
:1009400017D1324B1B68180713D1314B1B6803F0CA
:10095000F002302A03D003F0E003402B09D14FF01E
:100960008043D3F80024D20703D56FF00102C3F807
:1009700000244FF01023D3F80022002A03DBD3F821
:100980000032002B2FDA234B0122C3F80425D3F8C1
:100990000024002AFBD04FF010221521C2F80012CB
:1009A000D3F80024002AFBD04FF010231522C3F8FF
:1009B0000422184B1A46D3F800140029FBD000215A
:1009C000C3F80415D2F80034002BFBD0BFF34F8FCF
:1009D0001149124BCA6802F4E0621343CB60BFF3C3
:1009E0004F8F00BFFDE70C4B4FF0FF329A62DA6287
:1009F0000B4B0C4A1A6081F31188002008BD00BF20
:100A0000F0ED00E0A0050040E00F00F0E40F00F082
:100A1000E80F00F000E0014000ED00E00400FA05FE
:100A20007C5E00200090D003084881684A897F2AB4
:100A30000BD88069884208D000B517F0D1FD5DF869
:100A400004EB03494FF080520A607047C01B00203E
:100A500004ED00E0044800232021C2180133272BB5
:100A600082F80013F9D1704700E100E00E498A686E
:100A700028201044EFF3098C80E8F01F0B4F4FF053
:100A80000066202080F311888A698A603E60106EBB
:100A90000023136680F3118802F1280090E8F01F0C
:100AA0008CF3098870470000C01B002004ED00E0B3
:100AB0001EF0040F0CBFEFF30880EFF3098081698B
:100AC00031F8021C11F0FF0101D0022907D040408B
:100AD00080F3118804494FF080520A60704700B5D6
:100AE00000F026FA00BD000004ED00E004498A6829
:100AF000106604490968516600DF506E70470000B7
:100B0000C01B002004A4010010B5044617F03EFDF0
:100B100022680146BDE81040014800F07FBC00BFDC
:100B2000C597010010B504461A4800F077FC04F19F
:100B30001800194CFFF7E8FFA36A9A0102D517487D
:100B400000F06CFCA36ADB0102D5154800F066FCDE
:100B5000A36A180302D5134800F060FC0E4CA36A88
:100B6000590302D5104800F059FCA36A9A0302D534
:100B70000E4800F053FCA36ADB0302D50C4800F0DA
:100B80004DFC054A936A6FEA03436FEA134393628D
:100B900010BD00BF9698010000ED00E0AF98010085
:100BA000C3980100DE980100FD980100239901001F
:100BB0003E99010038B5044617480D4600F02EFC5A
:100BC00004F11800154CFFF79FFFA36ADB0604D55C
:100BD0001348BDE8384000F021BCA36A180701D5CE
:100BE0001048F6E7A36A99070FD50F4800F016FCE6
:100BF000A36A1A060ED5616B0C4800F00FFC4DB1CC
:100C0000A36A23F08003A36238BDA36ADB0701D582
:100C10000748DEE738BD00BF0F98010000ED00E097
:100C200026980100389801004C9801006598010051
:100C30007698010038B504461B480D4600F0EEFBDF
:100C400004F11800194CFFF75FFFA36AD90404D51B
:100C50001748BDE8384000F0E1BBA36A1A0501D58A
:100C60001448F6E7A36A9B0514D5134800F0D6FB99
:100C7000A36A180408D5A16B104800F0CFFB1DB182
:100C8000A36A23F40043A362084B9B6A590509D564
:100C90000B48DEE7A36A5A05FAD4A36ADB0501D53F
:100CA0000848D6E738BD00BF8C96010000ED00E093
:100CB0002698010038980100A3960100659801006C
:100CC000BD960100D996010038B5274D6B68C3F376
:100CD0000803DA1E0446092A3AD8DFE802F0053391
:100CE000352F393939393937204800F097FBEB6A0D
:100CF0009A0703D51E4800F091FB0CE0EB6A5B00FD
:100D000009D51C4800F08AFB1B4B1B784BB1012115
:100D10002046FFF74FFF21460020BDE8384000F095
:100D20000BB9164B1B7823B101212046FFF782FF38
:100D3000F1E7134B1B889BB2002BECD02046FFF74A
:100D4000F1FEE8E70021E3E70021EEE70D48D2E7F6
:100D50000D480E49A3F110020F2BD8BF01460C48D5
:100D600000F05CFBD7E700BF00ED00E0209701003A
:100D7000389701005A97010028ED00E029ED00E0C6
:100D80002CED00E07A970100F29601000797010030
:100D9000B1970100024A536943F010035361704751
:100DA00000ED00E043B2012200F01F0002FA00F063
:100DB0005B09024A42F82300704700BF00E100E0EF
:100DC00043B201225B0900F01F0002FA00F0203359
:100DD000014A42F82300704700E100E04209054B58
:100DE00000F01F0053F82220012303FA00F0104006
:100DF000704700BF00E100E043B2002BA8BF03F141
:100E0000604301F101014FEA4111BBBF00F00F0047
:100E1000044B03F56143C9B2AABFC9B2195483F8A0
:100E20000013704714ED00E000F042B808B572B648
:100E3000044B586918B100225A6116F081FF62B65E
:100E400008BD00BFC01B0020F8B50C4616461F4663
:100E500004220A9B0999054617F0CAFEA6F1200153
:100E600021440C4AAC6521F00701002322F0010265
:100E7000EB642B65EE658A61069A4A60079A8A6080
:100E8000089ACA600F604FF08072CA61A9642B662D
:100E9000F8BD00BFED890100014910220A607047CA
:100EA00010ED00E0404080F3118830BF704700BF74
:100EB000404080F31188DFF81CC0DCF800C01CF44F
:100EC000006C0CBFEFF30880EFF3098000B5FFF76B
:100ED000FBFE00BD04ED00E0042838B504460D46D5
:100EE00013D0052813D0032813D10C4800F096FA2C
:100EF00017F04CFBAA690146094800F08FFA294611
:100F00002046BDE8384000F017B80648EEE706482E
:100F1000ECE70146054800F081FAE9E76A9901002B
:100F2000E899010090990100AA990100C599010072
:100F300001460068FFF7D0BF052810B50CD017F0A8
:100F40003DFD60B117F03AFD0C4B0D49002808BF7C
:100F500019460C4800F062FAFFF7A4FFFCE717F00F
:100F60003DFD0028EED1084C0848A16800F056FA73
:100F7000A068BDE8104000F00BB800BF289A01003F
:100F8000249A0100399A0100C01B0020599A0100DF
:100F900038B505464FF02003EFF3118483F3118831
:100FA00017F0B6FD0B4B9B689D420DD10A4B5A685A
:100FB000C2F3080222B917F013FB2046FFF796FD93
:100FC0005A6842F080525A602046BDE8384017F017
:100FD00045BA00BFC01B002000ED00E000B572B6AE
:100FE0000B4A506900281EBF0021516116F0A8FE6F
:100FF00062B6EFF30580A0F110004FEAC00005498A
:10100000014409C998475DF804EBFFF70DBD0000E6
:10101000C01B0020DC000000202080F31188054860
:101020004FF40061401880F30988022080F314888F
:1010300000F006B8484D002030BFFFF7FDBF00BFED
:1010400008B5074B074A23F07F039360BFF34F8F28
:10105000BFF36F8F16F0A6FE16F0AEFE16F0D4FEAC
:101060000000000000ED00E008B5FFF7E5FFBDE877
:101070000840FFF7D9BC0000154B16491A6830B577
:101080000D68C2F3072295420FD8002248685A60C3
:10109000954200F10C000AD105225A600E4B012244
:1010A0001A70BFF34F8FBFF36F8F002030BD50F821
:1010B0000C1C50F8044C9A6021F01F0141F0100103
:1010C000114344F00104D96001321C61E0E700BF24
:1010D00090ED00E0385E00204400002000207047C2
:1010E0000B6801330B60014B1B681847805E0020C2
:1010F0002DE9F04F85B09B460E9CDFF890A0012CA7
:10110000B8BF0124012B0CBF302320231546804695
:1011100089460194029301260A2700220AF101045C
:101120000AB9AA451FD2B5FBF4F049463030C04792
:1011300001360122013F012FB5FBF4F14FF00A0304
:1011400004FB1155BAFBF3FAE8D1494605F130002A
:10115000C047BBF1030F03D1019B9C1B002C0FDC8C
:1011600005B0BDE8F08F019BBB42E3DBBBF1020F92
:10117000E0D84946029803920136C047039AD9E75E
:1011800049462020C047013CE8E700BFFFC99A3B21
:10119000014B1860704700BF805E00202DE9F04FC2
:1011A00089B04FF0000A06460F4604921C464FF0E5
:1011B000FF39D0465546049B187810B909B0BDE8F0
:1011C000F08F45B9252800F00C813946B047049BC3
:1011D00001330493EFE7642861D019D839280AD87D
:1011E000312850D22D283CD030283DD0252808D198
:1011F0003946B0476FE0582800F08980632800F036
:10120000EA8039462520B047049B39461878F0E734
:10121000702872D006D8692841D06C283CD0682844
:10122000D5D0EEE7752858D017D87328E9D12368B0
:1012300004F1040B1C46254615F8010B002840F06C
:10124000BF80B8F1030F40F0D580E41AA9EB040485
:10125000002C00F3BB805C463DE0782857D07A280C
:10126000DEE74FF00308B2E7B9F1000F0EDAB8F18C
:10127000000F00F0BC80A0F13009B8F1000F08BFEA
:101280004FF00208A3E7B9F1000FF4DB0A2303FBD8
:101290000909A9F13009F0E70AF1010A97E7BAF163
:1012A000010FC5BF073424F0070325681D68D4BFAC
:1012B000043403F10804002D05DA39462D20B04727
:1012C0006D4209F1FF39CDF8009043462A46394670
:1012D0003046FFF70DFF002579E7BAF1010FC5BFD2
:1012E000073424F0070322681A68CDF80090CCBFB9
:1012F00003F1080404344346E9E739463020B04797
:1013000039467820B0474FF008094FF00108BAF18C
:10131000010FC7BF073424F0070323680593C2BF3A
:1013200003F108041B6805934FF008024FF0000317
:10133000D8BF04340393079393460BF1FF3B059BFF
:101340004FEA8B0023FA00F010F00F0009D1079B41
:1013500013B9BBF1000F22D14FF0300E07E0069A0F
:10136000EBE709288CBF4FF0570E4FF0300E39468F
:1013700070440692B047039B079501330393BBF17A
:10138000000FECD1B8F1030FA5D1039BC3EB4905C6
:10139000002DA0DD39462020B047013DF8E7531E5F
:1013A00091450693EBDBB8F1010F03D139463020AC
:1013B000B047E4E7B8F1020FE1D139462020F7E762
:1013C000394603932C46B047039B34E73946202027
:1013D000B047013C3CE72068251D3946B0472C4604
:1013E00079E7AA46A8464FF0FF390125EFE64FF00E
:1013F0000108ECE65C460546E9E6000013B502ACE0
:10140000002344F8043D02460B4603482146FFF7FB
:10141000C5FE019802B010BDE11000000FB407B581
:1014200004A951F8040B0191FFF7E8FF03B05DF840
:1014300004EB04B0704770478B4238B515461C4624
:1014400005D81A462946FFF707F9204638BD00247B
:10145000FBE7FFF72DB9C3095A00134403EBC3039D
:1014600083EA4000C0B270472DE9F0410646A8B0BB
:101470000F46144640254FF0200800F065F903465A
:1014800018B9002028B0BDE8F081402108A898478D
:101490000028F6D0B4F9023004F1240208A9684605
:1014A0001F3393FBF8F35BB200F0EBFA2246694678
:1014B00018A800F008FF00B3B4F902306A460733F9
:1014C0003846082193FBF1F100F025FF18AA94F9A2
:1014D0000110304600F01FFF94F9011094F900202C
:1014E00018AB03EB8202701800F015FF20220021D8
:1014F0006846FFF7DDF80120C4E7013DBDD1C0E734
:101500002DE9F04F9146A5B0B3F9022093F901708F
:1015100093F900B004AD82464FF008080CAE28469F
:10152000073292FBF8F21C460295039600F007FF83
:101530003A46514614A800F002FF14AB0AEB07012B
:1015400003EB8B003A4600F0FAFE2346324629466A
:10155000284600F08CFEB0FA80F0019424AB4009DC
:1015600003EB8000638801331BB2009314A90023AE
:1015700050F8882C084600F0A9FD14AA39464846C0
:1015800000F0C9FE214614A800F017FD0DEB080479
:101590000746424600212046FFF78AF82022002114
:1015A0003046FFF785F8202200212846FFF780F813
:1015B000B7FA87F0400925B0BDE8F08FF0B50024F8
:1015C0008646204665B2AB4200DCF0BD51F824509F
:1015D00052F824602E440644B5428CBF01250025F4
:1015E00014BF0127002707FB05F70CBF05460025A0
:1015F0004EF8246047EA05000134E3E700EB81017F
:101600000023884200D3704751F8042C43EA520368
:1016100041F8043DD307F4E7036870B513F0010502
:101620000646144605D013460A460146FFF7C6FF94
:10163000054621463046FFF7E1FF45B104F18042FF
:10164000013A56F8223043F0004346F8223070BD8C
:101650002DE9F04F87B003920022029115461446FF
:101660004FFA82F8984514DB4FF0FF3C00220CEB58
:10167000430C00929DF8002002EB030E4FFA8EFE01
:10168000E64533DB00EBC30040F8044C07B0BDE88F
:10169000F08F039E4FF0000E06EB8209F44602998C
:1016A00059F8047951F82E60019500250095A7FBA3
:1016B00006ABDDE9006746EA040616EB0A0447EBD1
:1016C0000B055D450EF1010E08BF54454FFA8EFA29
:1016D000264634BF01240024D045A4443446DEDA33
:1016E00040F822602C4601326546B9E701322F46A8
:1016F00052B200259A4206DB009A40F82E40013291
:1017000000923C46B6E7AEEB02060399059751F806
:101710002660029951F82210A6FB01AB002104912A
:10172000DDE9046746EA040616EB0A0847EB0B09F5
:10173000D94508BFD04534BF01240C4601322544A9
:101740004F4652B24446D5E7014B1868704700BF78
:10175000845E0020002310B51C465AB2914200DC82
:1017600010BD40F823400133F7E710B500231A46B7
:101770005CB2A14203DCB2FA82F0400910BD50F81D
:10178000234001332243F3E74A11012350F822009A
:1017900001F01F0103FA01F108407047013949B215
:1017A000002904DA013149B231B90846704750F8CE
:1017B0002130002BF2D0F5E701F18043013B50F8D6
:1017C0002330002023B9013900EB411108B27047E2
:1017D0005B080130F6E710B500235CB2A24200DCE2
:1017E00010BD51F8234040F823400133F5E710B510
:1017F000013A52B2002A01DA002010BD13B250F8AB
:10180000234051F823309C4203D8F1D24FF0FF30EF
:1018100010BD012010BD30B5013A52B20023002A9C
:1018200003DA181C18BF012030BD15B2013A50F878
:10183000254051F825506C40234352B2EFE7F0B5F4
:1018400000248646204665B2AB4200DCF0BD51F86C
:10185000245052F82460AE1B361AB54234BF01251D
:10186000002514BF0127002707FB05F70CBF05461D
:1018700000254EF8246047EA05000134E3E7000044
:10188000F0B5082289B00C460646FFF7A4FFCB6AE4
:1018900003930B6B04934B6B05938B6B0693CB6B92
:1018A0000793002708236A4669466846029701970E
:1018B0000097FFF783FE082305466A463146304607
:1018C000FFF77CFE236B0393636B0493A36B059379
:1018D000E36B0693054408236A4669466846079702
:1018E000FFF76CFE082305446A4631463046FFF791
:1018F00065FE236A0093636A0193A36A0293A36B54
:101900000693E36B0793054408236A463146304645
:10191000059704970397FFF751FE636A0093A36A44
:101920000193E36AA26B0293636B039304920693A1
:10193000E26B236A0592054407936A460823314601
:101940003046FFF73BFEE36A0093236B0193636B22
:101950000293236A0693A36A0793054408236A4601
:1019600031463046059704970397FFF768FF236BCE
:101970000093636B0193A36B0293E36B0393636A1E
:101980000693E36A07932D1A08236A4631463046C8
:1019900005970497FFF753FF636B0093A36B0193C5
:1019A000E36B0293236A0393636A0493A36A059328
:1019B000236B07932D1A08236A4631463046069753
:1019C000FFF73DFFA36B0093E36B0193636A0393FF
:1019D000A36A0493E36A0593636B07932D1A0823A4
:1019E0006A463146304602970697FFF728FF2D1AC0
:1019F0000D4C0FD435B9082231462046FFF7F7FECB
:101A000001280FD00823224631463046FFF717FF42
:101A10002D1AEFE70823224631463046FFF7CEFD68
:101A20002D18F7D409B0F0BD849A010070B59DF966
:101A300010401E4623460546FFF7C0FD30B922463A
:101A400029463046FFF7D3FE012807D02346324609
:101A500029462846BDE87040FFF7F1BE70BD70B55D
:101A60009DF910401E4623460546FFF7E8FE38B1B3
:101A70002346324629462846BDE87040FFF79EBD02
:101A800070BD2DE9F04FA5B01D46039114AB29465A
:101A90008046104617460293FFF780FEC0EB851084
:101AA00004B2634203F01F034FF0200694FBF6F6E6
:101AB00076B204F01F0904A858BFC3F100093146EB
:101AC000FFF748FEB9F1000F30B22BDD04AB002266
:101AD00003EB8000C9F1200E1346AB4217D32FB29F
:101AE0007B00019304AB03EB870705F1FF3924ABBF
:101AF000012603EB8909002C55DB24AB0022C6F13B
:101B00000100964603EB860A03EB80002DE057F8B0
:101B1000236006FA09F10A4340F8232026FA0EF260
:101B20000133DAE704AB2A46394603EB8000FFF7BE
:101B300052FED4E70FFA81FC5AF8883C53F82CB0D7
:101B400024AB03EB810151F8803CABEB0303A3EB27
:101B50000E039B4504D034BF4FF0010E4FF0000E32
:101B600050F8881C41F82C300132019B51B2994247
:101B7000E0DBA6EB0E035E42294604A85E41FFF7B8
:101B80003DFD24AB03EB8503294653F8802C59F81F
:101B9000803C384643EAC273013C49F8803C24B299
:101BA000FFF72CFDA7E724AB03EB86062A4656F881
:101BB000881C4046FFF70FFE25B0BDE8F08F30B51A
:101BC0001C4691B0054693F900306846FFF740FD8A
:101BD000D4F8AC3069462846984711B030BD13465A
:101BE0000A46FFF7ECBF2DE9F04793F9006092B089
:101BF000044689461046314615469846FFF7B5FD1E
:101C0000002840F093804246494602A8FFF7E7FFCC
:101C1000434602AA21460AA8FFF7D1FF02A90846B7
:101C20004246FFF7DCFF43462A4649464846FFF74F
:101C3000C6FF08F10407424629462846FFF7CFFFB2
:101C40003B462A46214620460096FFF7EFFE3B46DC
:101C50002A46294628460096FFF7E8FE3B462A46D4
:101C6000214628460096FFF7FAFE43462A462146BB
:101C70002046FFF7A4FF3B46224621462846009611
:101C8000FFF7D4FE3B4600962A4621462046FFF742
:101C9000CDFE2368DB074CD533463A462146204625
:101CA000FFF78CFC314682462046FFF7A7FC06F181
:101CB0008043013B54F8230040EACA7044F82300F3
:101CC000424621462846FFF78AFF3B460AAA294694
:101CD00028460096FFF7C3FE3B460AAA2946284637
:101CE0000096FFF7BCFE0AA908463B462A46009626
:101CF000FFF7B5FE43460AAA21462046FFF75FFFDD
:101D000002AA3B46104621460096FFF7A8FE32463F
:101D100029462046FFF75FFD324649462846FFF731
:101D20005AFD324602A94846FFF755FD12B0BDE8FC
:101D3000F08731462046FFF761FCC1E72DE9F0410D
:101D400015468AB0044688462022002102A8FEF7E4
:101D5000AFFC2E1D95F9007003232A46414620460C
:101D60000293FFF73CFF334602AA21462046009724
:101D7000FFF775FE2B46424621462046FFF71FFF20
:101D80000097334605F1840221462046FFF74EFEB8
:101D90000AB0BDE8F0812DE9F0439BB01646229CC5
:101DA00014F9045B00959846074689462346024687
:101DB000314602A8FFF753FE02A9229A0846FFF710
:101DC0000EFF229B02AA39463846FFF7F8FE229BF7
:101DD00002AA31463046FFF7F2FE23464A46414604
:101DE00002A80095FFF722FE23464A464146404698
:101DF0000095FFF734FE23463A4631460AA800957F
:101E0000FFF72DFE229B0AAA49464846FFF7D7FE58
:101E10002346324639460AA80095FFF707FE229A64
:101E200041463046FFF7DBFE23460AAA31463046DC
:101E30000095FFF714FE23463246394612A8009556
:101E4000FFF70DFE229B12AA41464046FFF7B7FE60
:101E500023464A46414640460095FFF700FE229A37
:101E600002A912A8FFF7BBFE12A923460AAA084638
:101E70000095FFF7F4FD23463A4612A90AA80095FB
:101E8000FFF7EDFD0AA9229B02AA0846FFF797FE7D
:101E900023464A460AA948460095FFF7E0FD2A4630
:101EA00012A93846FFF797FC1BB0BDE8F083F0B5E8
:101EB0000F46A1B006461946384615461C46FFF7A0
:101EC00054FC28B121463046FFF744FC21B0F0BD58
:101ED000224639466846FFF77EFC2246294608A876
:101EE000FFF779FC214610A8FFF734FC01232146B7
:101EF00018A81093FFF72EFC224608A96846FFF7A2
:101F000076FC28B9224610A93046FFF764FCDDE7CD
:101F1000009BDA0709D421466846FFF76FFB22468B
:101F2000294610A8FFF778FBE6E7089BDB0707D4F4
:101F3000214608A8FFF762FB2246294618A8F1E7C8
:101F4000002823461CDD08AA69466846FFF777FC8F
:101F500021466846FFF752FB224618A910A8FFF752
:101F600046FC002805DA10A923462A460846FFF752
:101F700025FB10A9234618AA0846FFF760FCCEE708
:101F800008A96A460846FFF75AFC214608A8FFF749
:101F900035FB224610A918A8FFF729FC002805DA0E
:101FA00018A923462A460846FFF708FB18A9234626
:101FB00010AA0846FFF743FCBEE70978490049B27A
:101FC000FFF7D3BBF0B5154689B01C4607460E4651
:101FD0001A4629466846FFF702FE23466A463946F6
:101FE0003846FFF7ECFD23462A4669466846FFF768
:101FF000E6FD23466A4631463046FFF7E0FD09B06C
:10200000F0BD2DE9F0438BB01446129D15F9046B19
:1020100000961F46804689462B460246214602A866
:10202000FFF71DFD02A9129A0846FFF7D8FD129B83
:1020300002AA41464046FFF7C2FD129B02AA214672
:102040002046FFF7BCFD2B464A46394638460096E7
:10205000FFF705FD129A394602A8FFF7C0FD02A955
:102060002B46424608460096FFF7F9FC02A92B468C
:10207000224608460096FFF7F2FC2B4642462146D0
:1020800020460096FFF7EBFC129B22464946484645
:10209000FFF795FD2B4602AA414620460096FFF722
:1020A000DEFC129B224639463846FFF788FD2B4658
:1020B0004A46394638460096FFF7D1FC324602A917
:1020C0002046FFF788FB0BB0BDE8F0832DE9F04F09
:1020D000B1B01E463B9C049094F90070069218A87B
:1020E0003A460591FFF777FBBB000793059BBA00C3
:1020F000134419463A4628A80293FFF76CFB94F95B
:102100000050002E00F089802A46314608A8FFF7CB
:1021100062FB10AE2A4618A930460DF18009FFF780
:102120005AFB2A4628A94846FFF755FB234608AA2A
:1021300028A918A8FFF746FFD4F8A450234608AAF8
:1021400028A918A8A847234608AA49463046FFF7F9
:1021500039FFBDF9E850023D2DB2002D64DC069B2D
:102160001D68009405F0010610AB7601ED4303EB0A
:10217000060805F0010520AB1E446D0110AB03EB12
:10218000050920AB1D4404F1040A2B464A4631469A
:102190004046FFF700FE534610AA18A908A800976A
:1021A000FFF75DFC08A9234632460846FFF707FD06
:1021B00008A92346059A0846FFF701FD08A93B46F2
:1021C00052460846FFF773FE08A92346029A0846BE
:1021D000FFF7F5FC08A9234642460846FFF7EFFC47
:1021E00000943346424629464846FFF70AFF2346F5
:1021F00008AA20A910A8FFF7E5FE3A4610A90498FE
:10220000FFF7E9FA049B079C23443A4620A91846A5
:10221000FFF7E1FA31B0BDE8F08F294608A8FFF7D3
:1022200099FA0123089374E729460698FFF7ACFA58
:10223000B0FA80F04009C0F101084FEA48184001A7
:1022400006EB080B06EB000AC84409EB00035246F4
:102250004146584600940393FFF79DFD0094434682
:102260005A4603995046FFF7CCFE013D74E72DE92D
:10227000F041B3F902500F4603F12406904605F1F0
:102280001F04202294FBF2F464B201462346324636
:102290003846FFF793F990B9B5EB441F11DA294698
:1022A0003846FFF771FA051C18BF01252346324650
:1022B00039464046FFF782F92846BDE8F0810125FE
:1022C000F4E70546F2E730B5144695B005460CAA8A
:1022D0002346084604A902910392FFF7C8FFB0FA0B
:1022E00080F014AB400903EB800063880194013354
:1022F0001BB2009350F8482C002304F144012846F7
:10230000FFF7E4FE21462846FFF757FEB0FA80F0BB
:10231000400915B030BDF0B500254F1E6CB28C429F
:1023200005F1010500DBF0BD3B1B23F0030603F0C4
:1023300003039659DB0026FA03F30355EEE7F8B5DD
:10234000144604230E46D11C91FBF3F149B2054615
:10235000671EFFF7FFF9002251B28C4202F1010221
:1023600000DCF8BD7B1A23F00300715C03F003036B
:10237000DB0001FA03F3295819432950ECE72DE952
:10238000F04190B006460C4691F90050FFF715FE5B
:1023900048BB04F104082A4631464046FFF727FAB5
:1023A000012823D106EB85072A4639464046FFF728
:1023B0001EFA01281AD1224639466846FFF70FFC5B
:1023C000D4F8A8302246314608A898472A4608A9DA
:1023D0006846FFF720FA002814BF6FF002000020C3
:1023E00010B0BDE8F0814FF0FF30F9E76FF0010069
:1023F000F6E770B50C4690B0254691F901200646E7
:1024000001466846FFF79BFF94F9012015F9440B3C
:10241000B1180DEB8000FFF792FF102229466846A5
:10242000FFF7E5F928B121466846FFF7A8FF10B08D
:1024300070BD6FF00300FAE7CB7802785340037069
:102440004B884278534043700A68837883EA1223AA
:1024500083700A68C3785340C370CB7902795340C4
:102460000371CB884279534043714A68837983EA88
:10247000122383714A68C3795340C371CB7A027ABD
:1024800053400372427A4B89534043728A68837A7D
:1024900083EA122383728A68C37A5340C372CB7B68
:1024A000027B53400373CB89427B53404373CA681A
:1024B000837B83EA12238373CA68C37B5340C3734D
:1024C00070471FB502788DF8002042798DF8012001
:1024D000827A8DF80220C27B8DF8032002798DF874
:1024E0000420427A8DF80520827B8DF80620C27880
:1024F0008DF80720027A8DF80820427B8DF809209C
:1025000082788DF80A20C2798DF80B20027B8DF835
:102510000C2042788DF80D20C37A82798DF80E2038
:102520008DF80F3010236A461946FEF785FF05B077
:102530005DF804FBF8B5064608780C46FEF78BFFFD
:1025400005466078FEF787FFA27863785340E2780B
:1025500053405D404540357060782778FEF77BFF3B
:102560000546A078FEF777FFA3785F40E3785F40E9
:102570007D4045407570A07865782778FEF76BFF41
:102580006F400546E078FEF766FFE3785F407D40E8
:102590004540B5702078FEF75EFF637825785D4092
:1025A000A3785D404540E078FEF755FFEDB2684006
:1025B000F070F8BDF0B5284E07460C460FCE8DB032
:1025C00001AD0FC50FCE0FC596E8070085E80700DF
:1025D000002F3CD0002C3CD0381F2146024610343E
:1025E0004B780D781B0443EA0563CD782B438D7837
:1025F000043143EA05238C4242F8043FF0D1174CE2
:1026000004218A07036918D14FEA33631A0EA55CC7
:10261000DAB2A25C42EA0562C3F30745C3F30723BB
:10262000655DE35C42EA054242EA03220CAD21F01B
:1026300003032B4453F82C3C534050F8042F013132
:1026400053402C290361DCD101200DB0F0BD384688
:10265000FBE72046F9E700BF18940100309B01001A
:102660002DE9F043154689B0804600285BD000294B
:102670005AD0002A5AD010230A4668461946FEF757
:10268000DBFE294668462A4CFFF7D6FE05F1100707
:10269000A146A03500261DF80630E35C0DF8063093
:1026A0000136102EF7D16846FFF70BFF694604A8E4
:1026B000FFF740FF01A905A8FFF73CFF02A906A804
:1026C000FFF738FF03A907A8FFF734FF334604AA32
:1026D00031466846FEF7B0FE394668461037FFF7C8
:1026E000ABFEBD42D6D100261DF8063019F80330E6
:1026F0000DF806300136102EF6D16846FFF7E1FEE0
:1027000029466846FFF798FE33466A4631464046FA
:10271000FEF792FE684632460021FEF79AFE01203F
:1027200009B0BDE8F083FBE70846F9E71046F7E794
:10273000309B010010B591F90030002B01F10F0220
:10274000B4BF872300230F3014788A4283EA4403FE
:1027500000F8013903D012F80139DB09F4E710BDA4
:1027600008B528B158220021FEF773FE012008BDEC
:1027700008BD10B5044690B110220021FEF769FE95
:1027800004F1300010220021FEF763FE0023636491
:1027900000224FF48033C4E91423012010BD10BD82
:1027A00070B50D461646044618B319B358220021D9
:1027B000FEF74FFE2946A6643046FFF7FBFE204693
:1027C00010220021FEF745FE04F11005A26C2146FF
:1027D0002046FFF745FF21462846FFF7ABFF294675
:1027E00004F12000FFF7A6FF2046FFF7C2FF0120FB
:1027F00070BD70BD084670BDF8B50D46164604465E
:1028000000285BD00AB90120F8BD002956D0D0E9D4
:10281000142352EA030151D012F1FF3243F1FF3386
:10282000C0E91423406C48B3C0F11007BE4200F168
:10283000300009D2334631462A462044FEF7FCFDDB
:10284000636C1E446664DEE73B462A4639462044F4
:10285000FEF7F2FD00236364F61B3D44631E04F1A2
:102860000F005A7893F831104A4003F8012F834241
:10287000F7D1A26C21462046FFF7F2FE04F10F07C4
:10288000102E11D9631E691E5A7811F8010F4240AB
:1028900003F8012FBB42F7D1A26C21462046FFF777
:1028A000DFFE1035103EEBE7002EACD033462A4653
:1028B000314604F13000FEF7BFFDC3E70020F8BD4C
:1028C00070B50C46054670B371B34A6C102A1AD124
:1028D00001F11002611E013A04F10F0691F8310076
:1028E0004B78434012F8010F434001F8013F8E42FC
:1028F000F4D1A26C21462846FFF7B2FE2046FFF72E
:102900002FFF012070BD02F130000021C2F1100242
:102910002044FEF79EFD636C2344802283F8302020
:1029200004F12002D6E770BD084670BD0A2838B50C
:102930000446074D04D1286843680D215B68984719
:1029400028684368E1B25B689847204638BD00BFFD
:10295000480000200148FEF71BBC00BF2D290000E5
:1029600008B5044815F0D0F9034B1860FFF7F2FFE3
:10297000002008BD309C01004800002010B54FF039
:102980002003EFF3118283F31188114C237823B9CC
:1029900082F311886FF0440010BD013BDBB223705D
:1029A0001BB182F31188002010BD0A4B1878012159
:1029B00028B1217082F311886FF00A0010BD1970E0
:1029C00082F311884FF080425160187010BD00BF33
:1029D0004E0000204D00002008B5002210460121C5
:1029E000FEF70AFA0020FEF7DDF9002008BD00001E
:1029F000F8B54FF02002EFF3118382F31188254AD6
:102A00001078441C147060B183F311884FF0804338
:102A1000D3F80C3413F4803F14BF00206FF0430050
:102A2000F8BD1D4D2F782FB1107083F311886FF012
:102A30000A00F8BD01262E7083F311884FF0804400
:102A400019B33846FEF7BCF9C4F80071D4F8043362
:102A5000C4F804632660D4F8002192B10022C4F8BF
:102A600000210E4A13F0010F4FF0010308BFC4F814
:102A700008330020C2F88031FEF794F900232B7050
:102A8000C4E720BF40BF20BFE5E7C4F800112660BF
:102A9000F4E700BF4E0000204D00002000E100E000
:102AA000F8B506460C464FF02002EFF3118382F38F
:102AB00011882C4A157865B183F311884FF0804353
:102AC000D3F8183413F4803F0CBF6FF0430000209C
:102AD000F8BD0127177083F311882846FEF770F9B7
:102AE0004FF080430221C3F80451D3F80423C3F804
:102AF0000413C3F818459F60D3F8041171B392070B
:102B0000194F58BF02224FF000014FF00105C3F8E2
:102B100004114FF0000058BFC3F80823C7F88051D4
:102B2000FEF740F94FF0804300211822C3F8082334
:102B3000C3F80C11C3F8101114F00301BED110201A
:102B4000C3F83805C3F804233046C3F80453FFF72D
:102B50004FFF0028B2D1C7F80051AFE720BF40BFF8
:102B600020BFC9E74C00002000E100E0F8B54FF0BD
:102B700080430546D3F808E1D3F80423D3F80C4486
:102B8000D3F80071D3F80401D3F80C11D3F8106115
:102B900002F00102BEF1000F03D04FF0000EC3F8A7
:102BA00008E127B14FF080430027C3F800713AB124
:102BB000E30341BF4FF080430122C3F808231A61A9
:102BC00020B14FF080430022C3F8042149B14FF0F7
:102BD00080440021C4F80C112846FFF7CFFE0123E2
:102BE000636176B14FF0804300210124C3F81011D6
:102BF0002846C3F80443FFF7FBFE10B9014BC3F8A6
:102C00000041F8BD00E100E04FF0805210B51469BA
:102C100053690144634399429ABFC043C00F0020E7
:102C200010BD0000024AD2F80034002BFBD07047E0
:102C300000E001402DE9F0474FF080521D4E057A2B
:102C4000D6F804851769044615B10EF025F8054637
:102C50000223C6F80435FFF7E5FFDFF85890164E5B
:102C60004FF0000A2368C9F80835FFF7DBFF6368F7
:102C7000DB1B636023683B442360237A0AF1010A6B
:102C800073B96368002BEDD10A4BC3F80485FFF7D5
:102C9000C9FF6068003018BF01204042BDE8F087DE
:102CA0000DF0FAFF401BB0FBFAF31844B042E8D92C
:102CB000EAE700BF00E00140645E010070B58CB03F
:102CC0000DF12F0104460DF12E0013F043FE9DF887
:102CD0002E509DF82F600DF0DFFF134A0592002360
:102CE00040F67B31114A08930793049103930292B3
:102CF00001910093069403463246032128460DF0C5
:102D000081FE30F0020308D145F6B311084815F0F2
:102D100005FD28B9A0680CB070BD6FF04700FAE758
:102D20006FF03B00F7E700BF352D000002DB8600A7
:102D30006800002070B58CB01D46064612F0F2FF08
:102D40000DF12F010DF12E0013F004FE134B05932E
:102D50000024102300939DF82E0008943346079416
:102D600006950494039402940194224621460DF0A2
:102D700049FE30F002030ED06FF04703AB609DF8C0
:102D80002F209DF82E000094234621460DF0C8FE0A
:102D9000034815F081FC0CB070BD00BFF92D000098
:102DA0006800002070B50D462846194616461C4698
:102DB000FFF72AFF38B124B1224629463046FDF7F5
:102DC0004BFC002070BD6FF0150070BD08B50122EE
:102DD000064B43601146064815F054FC01220021C1
:102DE000044815F04FFC002008BD00BF689C01009E
:102DF000500000206800002030B51D4685B01B68DB
:102E000068689847044690B90DF10F010DF10E0066
:102E100013F0A0FD9DF80F209DF80E0000942346AE
:102E200021460DF07DFEAC60024815F035FC05B082
:102E300030BD00BF68000020F0B54FF0805387B070
:102E40001D69B1FBF5F305FB13130F461646B2FBE4
:102E5000F5F423B16FF01504204607B0F0BD05FB73
:102E60001425002DF6D111463846FFF7CDFE002877
:102E7000F0D0002CF0D04FF0FF31104815F04EFC90
:102E800028460DF0A5FD88B101238DF8083003A870
:102E90000B4B0097019605950393CDF810D0FFF7E3
:102EA0000DFF0446054815F0F7FBD5E78DF8140033
:102EB00003A803970496FFF7BDFEF2E75000002039
:102EC000352C000010B50A480C464FF0FF3115F0C4
:102ED00025FC084B4CB10022C3F80425FFF7A2FEE5
:102EE000034815F0D9FB002010BD0122F4E700BF14
:102EF0005000002000E00140F7B5057B044615B105
:102F00000DF0CAFE0546676817F003001FD1354F64
:102F10000126A268032A48D8AAB1636821681B6801
:102F200002A840F8043DFDF797FBFFF77BFE6368BE
:102F3000019A1A60A168236862680B440A442360FE
:102F400000236260A360FFF76DFE00202BE027F0F6
:102F5000030702AB3A6843F8042DA2682168C0F168
:102F60000406964228BF164632461844FDF774FB05
:102F7000FFF758FE019B3B6063683344636023683E
:102F800033442360A3689E1B237BA660002BBED026
:102F90000DF082FE134B401BB3EB400FB7D2FFF78F
:102FA00041FE4FF0FF3003B0F0BDFFF73BFE23685A
:102FB0001A6863681A6063680433636023680433C3
:102FC0002360A368043BA360237B0136002BA0D0C1
:102FD0000DF062FE401BB0FBF6F31844B84298D9DE
:102FE000DDE700BF645E010070B50D4688B019468C
:102FF000284616461C46FFF707FE28B3DCB14FF003
:10300000FF31134815F08AFB00200DF0E1FC04AB02
:1030100004960595069488B101228DF81C200022A3
:10302000039201A80B4A01920293FFF747FE044660
:10303000074815F031FB204608B070BD8DF81C0024
:103040001846FFF759FFF2E76FF01504F3E700BFEA
:1030500050000020F92E000003689B689A6883687E
:1030600010B5DC68002024FA00F3DB0707D500F573
:10307000A27352F82330C3F304238B4204D00130EF
:103080000828F0D16FF0120010BD00688068006859
:1030900041B9D0F8101521FA02F202F001021A60CB
:1030A00000207047D0F81025F9E7006880680068B4
:1030B00049B9012191401BB1C0F8081500207047A3
:1030C000C0F80C15FAE7C0F80435F7E710B58368C7
:1030D0003AB11A680A605A68196002B9596000204A
:1030E00010BD18680028FAD081420ED15C680868CB
:1030F00032B9A142186000D1586000230B60EEE79E
:10310000A142106008BF5A60F7E702460068E9E78D
:10311000F8B514460268876892680D469668A1B9AA
:103120002146FFF799FF002811DBBA68012303FA53
:1031300004F4144300F1400203FA00F0BC6046F8C6
:103140002250C6F804032846F8BD6FF02200F8BDEF
:10315000F8B514460268866892680D46976889B982
:103160002146FFF779FF00280EDBB268012303FA3E
:1031700004F403FA00F022EA0404B460C7F8080378
:103180002846F8BD6FF02200F8BD08B500220121E5
:103190000620FDF731FE0620FDF704FE002008BDE5
:1031A000F8B5036806469B68B46898680022134621
:1031B0001546012700EB8201D1F800E1BEF1000FB6
:1031C00008D0C1F80051D1F81015C1F3042107FA55
:1031D00001F10B430132082AECD1A56806201D40FD
:1031E000FDF7EEFD246824B90620BDE8F840FDF7A0
:1031F000D9BDA3681D42F5D063682A4621463046F2
:103200009847EFE72DE9F84314460268876892680B
:1032100080469568106819B16FF02200BDE8F88308
:1032200003F44072B2F5807FC3F30131C3F38139F7
:1032300003F4403E56D0B2F5007F0CBF04220022BA
:10324000BEF5803F08BF4FF0000E13F0010FDFF80E
:10325000C8C04FEA810104F5E0764ED00C2A43D174
:103260004FF0010E0EFA04FEC0F808E549445CF880
:10327000211041F003010A4340F8262013F0020018
:1032800047D09906C8D55A063ED413F0040F14BF90
:103290004FF480364FF40036F868FDF72FF8082811
:1032A00035D021464046FFF7D7FE0028FB6808DAF4
:1032B000DA4392FAA2F0002AB0FA80F008BF4FF089
:1032C000FF302402012204F4F854824044F0010447
:1032D00000F5A27013433443FB6045F82040002002
:1032E000BDE8F8830C22ABE7042A02BF4FF0010EC1
:1032F0000EFA04FEC0F80CE5B8E749445CF821106A
:103300000A4342EA0E02B7E74FF44036C4E76FF0D3
:103310000400BDE8F88300BF909C010003689B682F
:103320001B68D3F8082132B10020C3F80801D3F894
:1033300018350B7070474FF0FF30704703689B687B
:103340001B68C3F81C15D3F81C21002AFBD00022EF
:10335000C3F81C210846704703689B681B68D3F8B4
:10336000240118B1D3F88004C3F8800400F00F00E2
:1033700070470000F8B503689B68054618481C684C
:1033800014F0C2FC436806461F680D2240F2011388
:103390000021B84773681F68002319460F22304682
:1033A000B8470D23C4F80C350F23C4F81435AB68A7
:1033B0004FF4E1321A602B689B681B684FF0EB7288
:1033C000C3F824250423C4F8003500200123C4F8E1
:1033D0001C01C4F80801A3602360024B6B60F8BDB8
:1033E000F89C0100089D0100084BC3F84005D3F884
:1033F0000435C01A20F07F40054B0238984282BF46
:10340000044B4FF40032C3F8002170470010014014
:10341000FDFF7F0000E100E010B5124B124CD3F825
:1034200004052268801A20F07F40B0F5A37F11D9EF
:103430000E49096840F24713B0FBF3F0884228BFF9
:10344000084603FB002323F07F432360084B1860EA
:1034500015F0A6F92068BDE8104000F24710FFF70C
:10346000C3BF00BF00100140940000209000002066
:10347000DC6A0020024B0022C3F84021FFF7CCBFDA
:103480000010014046F23543984228BF1846054BCC
:103490001860054B1B6840F2471202FB0030FFF733
:1034A000A3BF00BF900000209400002008B5074B88
:1034B0000022C3F84021064B4FF40032C3F88021AC
:1034C000FFF7AAFF034B01221A6008BD001001405C
:1034D00000E100E09000002070B5184814F014FCE2
:1034E00048B34368164D1B6801219847154B0024CB
:1034F0001C60154B01261E6040F24713C5F80845B5
:10350000C5F840354FF48033C5F84433C5F804336B
:103510000E4BC5F840414FF40032C3F880213146CC
:1035200022461120FDF768FC1120FDF73BFCAE6040
:1035300020462E6070BD4FF0FF3070BD509C0100E2
:1035400000100140940000209000002000E100E005
:103550002DE9F04180464FF0FF300F4601F08CFD21
:10356000C3890344133323F00303012500F1080644
:1035700004461D700221304614F004FB0F23042181
:1035800003704170304614F0FDFA45700770A0F8E2
:1035900002802046BDE8F04101F0F4BA01F12003B9
:1035A000013813F8012D00F8012F8B42F9D1704733
:1035B00080B5544EDFF8648135464FF0FF31404608
:1035C00015F0ACF8BFF35B8F3468BFF35B8F14F07A
:1035D00001044ED0DFF840914B4C4C4F4C484A46CA
:1035E0002146FDF741FFC8B3202239462046FDF7AA
:1035F0001EF80028F2D000244FF0FF31012001F026
:1036000029FD00F1080702218146384614F0BAFA74
:103610003E230370422343700121384614F0B2FA6E
:10362000082303704121384614F0ACFA074600F82D
:10363000014BACB140220021FDF73AF8BFF35B8F9C
:1036400055E8003F23F0010345E80032002AF7D196
:10365000BFF35B8F484600F0A7FFAEE71F24CBE720
:103660002B49FFF79BFF2B4907F12100FFF796FF3E
:10367000E4E7BFF35B8F3368BFF35B8F9B079CD599
:1036800025492348FEF7B5FE002807DB204A224BD8
:10369000A2F120011046FDF733FF04464FF0FF3141
:1036A000012001F0D7FC00F10807022181463846CD
:1036B00014F068FA3E230370222343700121384638
:1036C00014F060FA092303702121384614F05AFAE5
:1036D0000346013084B91F221A7021462022FCF7CC
:1036E000E7FFBFF35B8F55E8003F23F0020345E897
:1036F0000032002AACD0F6E700221A700449FFF726
:103700004DFFEEE76001002098000020D09D0100F1
:10371000B8000020D8000020209D0100646B00202C
:1037200070B5C3890344133323F0030304461B78A5
:10373000ABB983681A8842F225018A4217D042F257
:1037400026018A423DD042F201018A4207D1DA784D
:1037500002F07F02DA701A7922F001021A71344BFA
:10376000D3F8E4302046DB68BDE8704018470321F9
:10377000083014F072FA204614F0E4F9BFF35B8FBE
:103780002C4B1A68BFF35B8F910706D50C2142F2D0
:103790002500FFF7DDFE002070BDBFF35B8F53E80F
:1037A000001F41F0010243E800200028F7D1BFF3D9
:1037B0005B8F11F00104E9D11F4814F06DFF214621
:1037C000E5E70321083014F048FABFF35B8F194B8B
:1037D0001A68BFF35B8FD20707D50C25204614F07B
:1037E000B1F9294642F22600D3E7A2893F2A1CD923
:1037F000BFF35B8F53E8005F45F0020243E800210E
:103800000029F7D1BFF35B8F15F00205E5D1A6685B
:103810000A483146FFF7C2FE06F120010848FFF7CB
:10382000BDFE054814F038FFD8E71225D6E700BFE3
:10383000905E002060010020646B0020B800002032
:10384000D800002008B50DF067FAB0FA80F0400902
:1038500008BD00007FB500230A220593049303925C
:103860000293019300934FF48062044B044905488E
:1038700015F030F907B05DF804FB00BFB13500006A
:10388000501E0020F8000020F0B40278012A0446FF
:103890000B4617D003D3022A2CD0F0BC7047184A2D
:1038A0000D4602F11007106851682E4603C6083213
:1038B000BA423546F7D11278327062885A73120ACA
:1038C0009A73EAE70E4A0D4602F110071068516834
:1038D0002E4603C60832BA423546F7D11278327006
:1038E00062685A73C2F30721120CDA73120A9973D1
:1038F0001A74D2E7014611221846F0BCFCF7ACBEA0
:10390000F09D010010B50C46017822788A428AB0F9
:103910000ED06946FFF7B8FF05A92046FFF7B4FFB0
:1039200010220DF115010DF10100FCF780FE0AE0F7
:10393000012A0AD004D3022A0AD06FF0150002E04F
:1039400040886388C01A0AB010BD40686368F9E710
:103950001022611C0130E8E7C3891844133020F0BD
:10396000030070470722FCF777BE00B5BFF35B8FFB
:1039700050E8003F43EA010240E8002EBEF1000F8C
:10398000F6D1BFF35B8F18465DF804FB4B09BFF31C
:103990005B8F50F82300BFF35B8F01F01F010841DC
:1039A00000F00100704700B5BFF35B8F50E8003FA7
:1039B00003EA010240E8002EBEF1000FF6D1BFF38A
:1039C0005B8F18465DF804FBC378002B41F2883208
:1039D00000F1700108BF0022014815F0D5B900BF01
:1039E000D81D002038B5054688790C4613F0D8FF5D
:1039F000084B83420DD12046FFF7AEFF436843B129
:103A000045702046FFF7A8FFBDE83840406814F035
:103A100043BE38BD286C00202DE9F84FDFF8DC806C
:103A2000344C98F80D3034486FF3071388F80D3094
:103A300001F07EFD461C4FF0FF3231462F4815F055
:103A4000C5FBB8B92D4DDFF8B89004F1D40B16B909
:103A500014F056FDE5E76B7B1B09042B36D195F876
:103A60000CA0BAF1000F34D15146584613F0F4FFC0
:103A7000074628B9404080F311884FF0040002DF68
:103A80004FF0FF31484614F049FED4F8C00018B199
:103A900014F058F8C4F8C0A0384614F06FF8C4F811
:103AA000C0003846FFF73CFE80B1484614F0F4FDF4
:103AB00000211F20FFF796FFD4F8C00014F042F851
:103AC00000233846C4F8C03014F03CF81435013EE9
:103AD000BDE7BAF1010F04D12869183801F064FC80
:103AE000F4E7BAF1020FF1D12869283801F098FF04
:103AF000ECE700BF905E00208C5F0020785F002024
:103B0000385F0020F8B505460E460F484FF0FF31EC
:103B100013F062FF0021044613F0B7FF2046FFF7C1
:103B20001BFF002202702046FFF716FF458020464B
:103B3000FFF712FF0321426004F1080014F022F89D
:103B4000867005802046F8BD286C002038B50546F3
:103B50000C4619B9FFF7D6FF044698B140F6354335
:103B60009D4209D12046FFF7DBFD054610B12046F6
:103B700013F0E8FF284638BD2146044813F0D4FF6F
:103B80000025F7E76FF03605F4E700BF645F00201B
:103B900038B50721044642F23200FFF7B3FF05466D
:103BA00098B10721083013F0EDFF2388038000242B
:103BB00002238470C370037144718471294642F2F8
:103BC0003200FFF7C3FF204638BD6FF0360038BD26
:103BD00070B506460D4642F221000321FFF792FF21
:103BE000044660B10321083013F0CCFF85700680D5
:103BF000214642F22100BDE87040FFF7A7BF6FF0F9
:103C0000360070BD30B5154687B00C4619B9FFF7C0
:103C100079FF044648B301220021684614F032FDC2
:103C20002046FFF799FEC0F804D0204613F0A6FF07
:103C300021460F4813F078FF42F21071684614F0E5
:103C40006DFD2046FFF788FE407830B1204613F026
:103C500079FF6FF0040007B030BD0DB12C60FAE7BA
:103C6000204613F06FFF2846F5E76FF03600F2E7C5
:103C7000645F002070B5154D062205F10801064667
:103C8000FCF7D5FC0446D8B1062142F20500FFF747
:103C900039FF0446B0B106223146083013F078FFF0
:103CA0002146002242F20500FFF7ACFF044638B976
:103CB0000622314605F10800FCF7CEFC0123EB712A
:103CC000204670BD6FF03604FAE700BF905E00201A
:103CD00007B5062168460DF01FF840B99DF805307C
:103CE000684603F03F038DF80530FFF7C3FF03B0CC
:103CF0005DF804FB38B50221054642F20C00FFF7DF
:103D000001FF044628B30221083013F03BFF012DC8
:103D1000024615D10A211048FFF738FE5070157081
:103D20002146002242F20C00FFF76CFF044628B93E
:103D3000012D08D180210848FFF717FE204638BD25
:103D400000234370EBE76FF080010348FFF72BFE81
:103D5000F4E76FF03604F1E7005F002038B5012189
:103D6000054642F20A00FFF7CDFE0446D8B10830FE
:103D70008DB1012113F015FF2146002242F20A0005
:103D8000FFF740FF044620B93DB120210748FFF767
:103D9000ECFD204638BD2946ECE76FF020010348D2
:103DA000FFF701FEF5E76FF03604F2E7005F002051
:103DB0002DE9F8430C46202107469046FFF7A2FE66
:103DC000064600283CD02021083013F0DBFE2022DC
:103DD00000210546FCF76CFC4FF00009C14506D1F7
:103DE000314638460022BDE8F843FFF70BBF627842
:103DF0002B78D11802311F2904F1080406DD304662
:103E000013F0A0FE6FF01500BDE8F883E918501C10
:103E10004870981CC0B20133287055FA83F314F827
:103E2000081C5970013054F8041C2844FCF714FC99
:103E30002B7814F8072C13442B7009F10109CDE7F6
:103E40006FF03600BDE8F883F7B5074601AA0021F8
:103E500042F22F00FFF7D6FED8B901988368B3F875
:103E60000160B3F8035013F06DFE062142F2220008
:103E7000FFF748FE044670B10621083013F082FEB9
:103E80003B88038046808580214642F22200FFF76E
:103E90005DFE03B0F0BD6FF03600FAE7028843889C
:103EA0009A4210B518D8052A16D9B3F5486F13D819
:103EB0008488B4F5FA7F0FD2C188A1F10A0292B2C8
:103EC00040F67640824207D804FB0333B3EB810F00
:103ED000B4BF0120002010BD002010BD08B508218E
:103EE0000848FFF753FD024648B907210548FFF788
:103EF0004DFD20B11046BDE80840FFF7FBBE002095
:103F000008BD00BF005F0020F0B5037885B005460E
:103F10007BB10221002001F061FC044638B12B780E
:103F20000372002101F080FB204601F080FC05B007
:103F3000F0BD041DB0F80160214602A8FFF712FD94
:103F40009DF80830023BDBB2012B7DD8062205F13B
:103F500011010DF101008DF80830FCF77DFB012304
:103F60008DF80030022102A801F038FCEB78012B1B
:103F7000044609D16FF020014448FFF714FD2CB925
:103F800002A801F01DFB0446002CD0D0204602A957
:103F900020F8446BFFF7E6FC2A7EEB7D43EA022320
:103FA000A4F85A30AA7E6B7E43EA0223A4F860305C
:103FB000EB7E2A7F43EA0223A4F86230EE78E670B3
:103FC000012E1AD1324F694604F14B00FFF7CAFCAB
:103FD000394604F15200FFF7C5FC062107F17000D5
:103FE000FFF7D4FC48B1D7E92023002203F04003B7
:103FF000134302D03046FFF7B1FE0321204601F003
:1040000013FB637A032B18D1EB7823B1204B93F881
:10401000783019071DD5022142F21600FFF772FD14
:104020000546B0B10221083013F0ACFD23880380AF
:10403000294642F21600FFF789FD204601F0F7FB02
:104040000020FFF74BFF72E721466846FFF78AFC26
:1040500088E70F4D95F87920D20708D52046FFF75D
:1040600097FD20B98021201DFFF77FFCE5E795F83B
:1040700078309B0606D52046FFF7E6FE10B94FF4D0
:104080008071F0E72046FFF79FFCD6E7005F002035
:10409000905E0020012310B50621044600F8013B84
:1040A0000CF03AFE18B9A37963F03F03A37110BD79
:1040B0002DE9F04186B004AA002140F60340FFF745
:1040C000A1FD0446002840F0CD81049B9B681B782D
:1040D0006BB9C44A1360C44BBFF35B8F012253E832
:1040E000001F43E800200028F9D1BFF35B8F04983C
:1040F00013F028FD04AA002141F20300FFF782FD1E
:104100000446002840F0AE81049BB84D996808220F
:10411000013105F11600FCF79FFA049813F012FD27
:10412000214604AA41F20100FFF76CFD0446002875
:1041300040F09881049883685A78AA73D9789A785D
:1041400042EA01222A821A79EA73197ADA7942EA72
:1041500001226A825A799B7942EA0323AB8213F0E7
:10416000F1FC214604AA41F20900FFF74BFD044689
:10417000002840F07781049B996806220131681C71
:10418000FCF76AFA04982C7013F0DCFC214604AAB0
:1041900041F20200FFF736FD0446002840F062813C
:1041A000049B99684022013105F11E00FCF754FA86
:1041B00095F84030049843F0060385F8403013F03A
:1041C000C1FCAB7E5A0640F1D381214604AA42F2DB
:1041D0000300FFF717FD0446002840F04381049BCD
:1041E00099680822013105F17800FCF735FA049846
:1041F00013F0A8FC214604AA42F20200FFF702FDD8
:104200000446002840F02E81049B9B68B3F80120EF
:10421000A5F8882042B1DA78022A28BF0222114686
:1042200005F18C0014F02EFA049813F08BFCAC7E90
:1042300014F0200400F0FB8095F83A301B0714D5E9
:1042400004AA002142F21C00FFF7DCFC044600280F
:1042500040F008810498836853F8012F5B68C5F823
:104260008430C5F8802013F06DFC95F878309F06F7
:1042700000F1FC80082142F20100FFF743FC0446F4
:10428000002800F0DB800821084413F07BFC95F83F
:1042900078108E074CBF2F220F22890695F87910CF
:1042A00048BF42F0400211F0090F95F8401001F0AC
:1042B000060118BF42F40062062908BF42F4C0722A
:1042C0000270C2F30722427000228270C270027133
:1042D00042718271C271214642F20100FFF792FCE5
:1042E0000446002840F0BE80AB7E9A0621D4B5F883
:1042F0008810F1B904AA41F20500FFF783FC0446D7
:10430000002840F0AF80B5F888307BB9049B38486E
:104310009B6899785A7842EA0122A5F888209A8801
:10432000022A28BF0222114614F0ACF9049813F0B7
:1043300009FC082140F60140FFF7E4FB0446002891
:104340007CD00821084413F01DFC1023037088233F
:1043500000224370022620238270C67002714271CF
:104360008271C371214640F60140FFF74BFC0446C1
:10437000002877D1014604AA4FF60140FFF742FC1E
:10438000044628BB049813F0DDFB214604AA4FF62F
:104390000240FFF737FC0446D0B9049B15489968E2
:1043A00032460131FCF758F9049813F0CBFB04AA0C
:1043B00021464FF60340FFF725FC48B9049B0E4801
:1043C000996801221144FCF747F9049813F0BAFBED
:1043D0000023072204A905480493CDF81330FCF705
:1043E00026F90BE0B0010020005F0020905E002065
:1043F0001C5F0020EF5E0020EE5E0020002860D1F0
:104400005D4E3368002B79D195F86030DB0700F101
:1044100091805A48FFF73EFE044618BB3368002BD4
:1044200075D05E68554A07230146B0476FE0022108
:1044300040F66D40FFF766FB064610B96FF0360494
:1044400010E00221083013F09DFB0123447003703B
:104450002246314640F66D40FFF7D4FB0446002863
:104460003FF4EAAE204606B0BDE8F08104AA002180
:1044700042F22F00FFF7C6FB04460028F2D1049851
:104480008368B3F80180B3F8037013F05BFB042179
:1044900042F22400FFF736FB06460028CED0042166
:1044A000083013F06FFB2246A0F8008047803146A9
:1044B00042F22400FFF7A6FB044600283FF4DAAEE0
:1044C000D0E72F4B18689A8802909B79ADF80C20A2
:1044D00002A9072229488DF80E30FCF7A8F8002819
:1044E0008ED001F003FB04460028BBD102212548F1
:1044F000FFF73BFA2046FFF7F1FCB3E700211C6809
:104500001E4A07230846A04707287FF47DAF2B7873
:10451000012B2AD1AB7903F0C003C02B25D11A4857
:10452000FFF7A8FB044600289CD104211548FFF79B
:104530001CFAD6E701AA00214FF60940FFF762FBFB
:1045400000287FF466AF019881684B7853B101234E
:10455000062202310C482B70FCF77EF8019813F00C
:10456000F1FAD4E713F0EEFA53E76FF0150479E7A8
:104570006FF0120476E700BFE81C0020905E002078
:1045800044940100005F0020915E002010B5FFF709
:104590008FFD034B1B6813B1BDE81040184710BDD9
:1045A000AC010020FFF7BCB82DE9F04F044691B0F4
:1045B000807913F0F5F9C38A032B204604D813F051
:1045C000C1FA6FF0150038E0FFF7C6F90378012B48
:1045D00036D0032B40F09A82A3681E885D88C6F30C
:1045E0000B0343802046FFF7B7F9FF2343700421F4
:1045F00004F1080013F031FBA389AB4203D020463D
:1046000013F0A0FA18E02046FFF7A6F9408801F061
:1046100099F805460028F2D02046FFF79DF9074695
:10462000284601F057FA320B78702146284600F0F0
:104630004DFE284601F0FBF8002011B0BDE8F08FD8
:10464000A5682A78132A00F26382934013F40C2F92
:1046500000F05E82404080F311884FF0040002DFDA
:10466000A7683E78002ECAD1B7F8010001F06AF8B9
:104670000546D8B1FB78037213F092FB3146284609
:1046800000F0D2FF2E80AE780EB1284675E031469C
:10469000281DFFF77BF930B12846012100F0C4FF47
:1046A0003046FFF71BFC284601F0C1F80621AA4856
:1046B000FFF76CF90028A2D00521A748FFF766F99B
:1046C00000289CD10120FFF749FB98E7A1680B78EF
:1046D0008DF82030B1F80130ADF82130CB788DF86D
:1046E0002330B1F80B30ADF83730B1F80D30ADF8FC
:1046F0003930B1F80F30ADF83B304B7C8DF83D30A0
:10470000043109A8FFF72EF90025062204A90DF1AE
:104710002B000495ADF81450FBF79EFF062206A966
:104720000DF131000695ADF81C50FBF795FF08A878
:10473000FFF7EAFB63E7A068FAE7A568B5F80100B0
:1047400001F000F8064600283FF459AF2B789BB9DA
:104750002A79EB7843EA0223A0F85A30AA796B79D8
:1047600043EA0223A0F86030EB792A7A43EA022375
:10477000A0F8623000F06EFD304601F058F83EE7D8
:10478000A668B6F8010000F0DDFF054600283FF4FA
:1047900036AF337823B90822F11C6430FBF75CFF95
:1047A0006E4E96F87920D2070CD595F86530DB0768
:1047B00008D52846FFF7ECF920B98021281DFFF71E
:1047C000D4F862E796F878309F066ED595F8643095
:1047D0009E066AD52846FFF737FB002865D14FF4BF
:1047E0008071EBE7A368D9789A781F8842EA0122A2
:1047F000ADF8202059791A7942EA0122ADF8222039
:104800009A79D97942EA0122ADF824201A7A5B7AA2
:10481000BDB242EA03232846ADF8263000F092FFED
:10482000804620B902212846FFF7D2F9E7E608A919
:1048300000F024FD28B91E212846FFF7C9F940469B
:104840009BE70E2142F22000FFF75CF906460028A4
:10485000F5D00E21083013F095F90E2205460021FF
:10486000FBF726FFBDF820306B80BDF82230AB800F
:10487000BDF82430EB80BDF826302F802B813146E7
:1048800042F22000FFF762F9D9E7A368188800F028
:1048900059FF054600283FF4B2AE6FF48071043032
:1048A000FFF781F8C0057FF5F0AE2846FFF78CF8DA
:1048B000EBE6A368B3F8010000F044FF05460028CA
:1048C0003FF49DAE061D6FF080013046FFF76BF898
:1048D00001067FF5DAAE214B93F878309A06E4D5DD
:1048E00095F864309B06E0D52846FFF7ADFA00281E
:1048F000DBD14FF48071304661E7A66816486FF04F
:104900001001FFF750F8337843B9711C4022144866
:10491000FBF7A2FE08211048FFF727F8114B1D688E
:10492000771C002D3FF46BAE32782B68002A0CBF49
:104930003846002098476D68F3E70B4DA0682A6859
:10494000002A3FF45CAE037823B90130904700237E
:104950002B6054E60020F9E7005F0020905E002005
:1049600068010020A801002064010020304613F0F7
:104970007CF9DFF808A2DFF808920190019B002B78
:104980003FF43DAEA7680921304613F066F93B7A43
:10499000B8463B4408A893F809B018F8013F023B19
:1049A000012B414600F29D80FEF7DCFF9DF8203090
:1049B000023B8DF82030DAF80030CBB1304613F0EE
:1049C00081F9A38903933B7AA381029033463A7815
:1049D000DAF800504FFA8BF108A8A847BDF8082074
:1049E00006F1080313FA82F3A360BDF80C30A3812B
:1049F000082148463D78FEF7C9FF8346002866D166
:104A0000012D64D8012108A800F0E8FE0546002821
:104A10005DD007214846FEF7B9FF002864D1022186
:104A20004846FEF7B3FF10B15248FFF723F9524949
:104A300005F14B0005F1520BFEF794FF4146584635
:104A4000FEF790FF192142F20D00FFF75BF80346D5
:104A500000284ED019210830039313F093F819223F
:104A600080460021FBF724FE0022602188F8001018
:104A700088F8012088F8021088F80320594608F1C8
:104A800005000292FEF76EFF95F84B1088F80C10A7
:104A9000B5F85C10A8F80D10B5F85E10A8F80F1066
:104AA000B5F86010A8F81110039BB5F86210A8F8CB
:104AB0001310029A194642F20D00FFF7A3F8C0B98D
:104AC0002846022100F0B0FD284600F0B0FE397AF9
:104AD0003046013113F0C1F8019B013BDBB2019379
:104AE0004CE7FEF73FFF66E75846FFF703F900285B
:104AF00095D01F232B720021284600F095FD2846F3
:104B000000F095FE0020FFF7E9F9E0E7204656E5C2
:104B100004F108060221304613F09FF82B78052B8C
:104B20003FF49EAD3E2B7FF46AADA568012130466F
:104B300013F093F82B78013B0B2B3FF660AD01A2ED
:104B400052F823F0CD4600006D4900003B470000BD
:104B500081470000FF450000E54700008B4800004A
:104B6000FB4800003B49000037470000FF450000BC
:104B7000B3480000915E0020905E0020B00100204C
:104B8000005F00202DE9F84304468668FEF7E4FE46
:104B90000378012B05D0404080F311884FF00400CA
:104BA00002DFA289012AF6D93278132AF3D893407A
:104BB00013F40C2FEFD004F108050221284613F05E
:104BC0004CF833780F2B18D0132B23D00E2B61D138
:104BD000A368032128461E7813F03FF8A3682146F6
:104BE0001878FEF7FFFE16B12C4813F055FD20464D
:104BF00012F0A8FF0020BDE8F883A66804217778AA
:104C0000284613F02AF821463078FEF7EBFE002FF5
:104C1000EDD0E9E7D4F80880002798F800309F42EB
:104C2000E5DA08EB8703B3F80100B3F803604FF04F
:104C30002003EFF3118983F3118800F083FD05460B
:104C400018B989F311880137E7E789F3118800F172
:104C5000180996B14FF02003EFF3118083F3118808
:104C6000296929B16A690B682B61914208BF6B61A0
:104C700080F31188013EB6B219B9284600F0D7FD7D
:104C8000E1E7484613F071FA284600F0DFFA13F026
:104C900003FDDEE7204612F055FF7CE7385F002079
:104CA000084AD2F8E4303BB9816841B1C16831B1FA
:104CB000C2F8E400184670476FF0440070476FF088
:104CC00015007047905E002070B5214CD4F8E43098
:104CD00086B00646002B35D0012104F17000FEF7A6
:104CE00044FE10F0010030D11A4B1B491E606FF0DA
:104CF00008034FF420720590049003930290174B21
:104D000001900090164813F0E5FEFEF7A3FDD4F8DD
:104D1000E4309B689847054688B926B906B0BDE8D7
:104D20007040FFF7C5B9012104F16C00FEF71DFECC
:104D3000C30704D404F164010A4813F016FA2846A4
:104D400006B070BD6FF01205F9E76FF04405F6E7A5
:104D5000905E0020AC01002050220020193A000093
:104D6000B4010020D81D0020002070477FB51E46EA
:104D7000037813F0010F05460C4643880AD14749D2
:104D8000897B082906D89F2B04D86FF0150420468C
:104D900004B070BDA9888B42F7D81F2BF5D9B1F5A7
:104DA000804FF2D805213E48FEF7F0FD10B16FF0BC
:104DB0004404ECE7214642F20800FEF7F9FF0446FE
:104DC0000028E4D1002E46D12B78D90743D40F22F6
:104DD00000216846FBF76CFC6B88ADF80030AB88AF
:104DE000ADF8023007238DF80D302B78DA073CD56B
:104DF00002212B48294CFEF7C9FD10B1601CFEF7BB
:104E000039FF23788DF8053000230F2142F2060088
:104E10008DF80430FEF776FE044600283BD00F22C2
:104E20006946083012F0B4FE2146002242F2060024
:104E3000FEF7E8FE04460028A9D10120FEF78EFF08
:104E400004460028A3D12B789B07A0D44021144806
:104E5000FEF78BFD9BE7089A314642F20900FEF708
:104E6000A7FF04460028B2D091E7A86870B1437943
:104E700013F0C00F89D1FEF7FDFE0446002886D14D
:104E800001238DF8053026B10223BEE7FEF720FF8F
:104E9000F3E70323B9E76FF0360478E7905E00206C
:104EA000005F002010B56FF040011048FEF77BFD59
:104EB00005210E48FEF76AFD10B90024204610BDFA
:104EC0000020FEF74BFF04460028F7D107210748D2
:104ED000FEF75CFD0028F0D009210448FEF756FDDE
:104EE0000028EAD0FEF7F4FEE8E700BF005F0020EC
:104EF0002DE9F3410378012B05460F4610D843787E
:104F0000012B0DD841880B1F9BB243F6FC708342E6
:104F100006D8AA88131F9BB2834201D891426ED251
:104F20006FF01504204602B0BDE8F08107213B4830
:104F3000FEF72CFD50B11046FEF7DCFE044628B10A
:104F40006FF480713548FEF72EFDEBE76B78002B90
:104F500049D04FF480613148FEF707FD0722002158
:104F600068462E78B5F80280AC88FBF7A1FB2C4888
:104F70008DF8006000238DF80630012E0378ADF81F
:104F80000180ADF803408DF805300BD1052170305C
:104F9000FEF7FCFC30B9FEF79BFE04460028CFD19B
:104FA0008DF80560072142F20B00FEF7ABFD0446C9
:104FB00080B307226946083012F0EAFD214642F22A
:104FC0000B00FEF7C3FD0120FEF794FE0446002807
:104FD000B6D1012E0DD14FF400711048FEF7C5FC7B
:104FE000104B1F609EE76FF480610C48FEF7DBFCFE
:104FF000B4E76FF400710948FEF7D5FCF0E74FF411
:1050000080710648FEF7B1FC10F480728ED06FF00C
:10501000440487E76FF0360492E700BF005F00208A
:10502000905E0020B001002008B56FF48071074841
:10503000FEF7B9FCC30506D5054B00201860BDE896
:105040000840FEF74BBF6FF0440008BD005F002032
:10505000B001002038B50546064812F0BDFC0446F4
:1050600030B1002112F011FD2046FEF775FC0570ED
:10507000204638BD486C002010B501464FF0200393
:10508000EFF3118083F311880C4B0022D3F8C0405A
:10509000C3F8C02080F3118824B90120BDE8104076
:1050A000FFF7D8BF2046FEF757FC012303701146D7
:1050B0002046A28112F0E9FC204610BD905E00203F
:1050C0002DE9F0411D4E96F8403003F00603062B03
:1050D000074630D11A4D2B6843602860102106F135
:1050E0007000FEF742FC10F0100803D000242046A8
:1050F000BDE8F0816FF0080106F17000FEF753FC87
:105100004246414642F22500FEF77CFD044640B18E
:105110006FF0100106F17000FEF745FCC5F8008045
:10512000E5E72C68002CE1D0BC4202D023680020C7
:1051300098476468F6E76FF02204D8E7905E002095
:10514000A801002008B503210348FEF71FFC002832
:10515000024808BF002008BD005F00206801002051
:10516000F8B51A4C236807460A4613B16FF00F00D2
:10517000F8BD04211648FEF709FC06460028F5D1C3
:1051800003211348FEF702FCE0B1402142F2260061
:105190002260FEF7B7FC054618B920606FF03600B4
:1051A000F8BD4021083012F0EDFC40223946FBF7F3
:1051B00053FA3246294642F22600FEF723FD18B183
:1051C0002660F8BD6FF03000F8BD00BF640100201C
:1051D000005F002038B5064B1C68054604B938BD91
:1051E000236813B1297A284698472469F6E700BF57
:1051F0001C020020BFF35B8F0068BFF35B8F70471A
:10520000438910B504462BB1C06812F09BFC002303
:10521000E360638110BDBFF35B8F50E8003F5A1E0F
:1052200040E800210029F8D1BFF35B8F1846704792
:10523000BFF35B8F50E8003F5A1C40E80021002973
:10524000F8D1BFF35B8F18467047000000487047E5
:105250001C5F0020084B70B51C68054604B970BD82
:10526000E6683EB1B5F86230B5F86020B5F85A107E
:105270002846B0472469F1E71C020020F8B507462C
:1052800008460E46FEF70AFE054610B900252846D8
:10529000F8BD094B1C68002CF9D0A3680BB9246930
:1052A000F9E73146384698470028EFD03046FEF7F8
:1052B000F5FD0028F3D1E9E71C020020024B1A6833
:1052C00002611860704700BF1C020020012A70B5FF
:1052D00005460C460FD0022A10D18B681E884389E0
:1052E0000BB1FFF78DFFA389F31A04339BB26B81D7
:1052F00033B3EC6070BD43893BB92846FFF780FFAC
:105300002046BDE8704012F01DBC8E89B342F4D334
:10531000C068083012F0DBFC8642EED8E868A2894B
:10532000A168083012F034FC6B89A2899B1A6B814A
:10533000204612F007FC6B8973B9EC686B81EB6057
:10534000A368A2891B8804339342D9D121462846F9
:10535000BDE8704000F00FBD70BD70B5054688799E
:105360000C46164612F01CFBC38A032B05D82046B8
:1053700012F0E8FB6FF0150070BD6B7A032B05D0BF
:10538000204612F0DFFB6FF0380070BDE389234444
:10539000133323F0030305F128001E60214612F0A9
:1053A000C3FB002070BD00002DE9F0410D4D064605
:1053B00000F118074FF000080021384612F0F9FEFE
:1053C000044608B9BDE8F08163680BB130469847E0
:1053D0002B6823606B68C4F804802C60002BEBD131
:1053E0006C60E7E7C80200202DE9F04105460F4652
:1053F00040484FF0FF319846144613F08FF93E4B6A
:1054000003F14000FFF7F6FE30B15A7A033A012A61
:1054100002D81846FFF7C8FF6B7A032B4ED1042140
:1054200007F1080012F0F4FB2A88344E42EA0432F5
:105430000280BB89043B4380FB893B44133323F048
:10544000030302211A681970346871682368336095
:105450008C4208BF736062604FF02003EFF311824B
:1054600083F31188002323606B69002B34D16C61B6
:105470002C6182F311883846FFF794F8002836D063
:105480004FF02003EFF3118083F311882B69002282
:1054900053B19C4228D12368696902BB8C422B61BD
:1054A00000D16B610023236080F3118800236360C7
:1054B000336823607368346003B974600D4813F077
:1054C000EBF8B8F1000F04D0384612F03BFB4FF078
:1054D00000084046BDE8F0811C606C61C9E78C4261
:1054E000136008BF6A61DDE71A461B68D0E74FF01A
:1054F0000108EEE71C5F002030020020C8020020F7
:1055000038B5044600F128050021284612F0A4FA17
:1055100058B92046FFF748FF2046FFF771FE04F117
:105520004000BDE83840FFF776BE12F00BFBEBE71A
:1055300038B51F4B002201219A60054613F032FE58
:105540001C4B03F14000FFF755FE194608B9012036
:1055500038BD5A7A9AB9BFF35B8F1A1D52E8000F13
:1055600020F0400442E8004EBEF1000FF6D1BFF338
:105570005B8F420603D51846FFF7C2FFE7E74C7A78
:10558000032CE4D105F114000B4B0022042113F08D
:1055900009FE012385F8203005F12800074B002281
:1055A000042113F0FFFD022385F83430204638BD76
:1055B000C85F00203002002048020020580200206E
:1055C000F8B5174C04F1400607463046FFF712FEC7
:1055D000054608B10020F8BD014698222046FBF799
:1055E00067F8BFF35B8F012356E8002F46E80031D0
:1055F0000029F9D1BFF35B8F0722394604F144003B
:10560000FBF72AF81823A4F85C30282304F1700073
:10561000A570A4F85E30034913F04CFB2046F8BD9A
:10562000300200205D590000F8B5457A8D420446ED
:105630007ED0417215B94030FFF7FAFD637ADBB1D5
:10564000032B75D1A378022B72D004F1280012F03D
:1056500045FD04F1180012F041FD0021354813F01A
:105660006BFE00232046A363E36300F0BFFA2046ED
:10567000BDE8F840FFF7AEBDA378022B05D104F1D9
:105680004000BDE8F840FFF7C6BDEB1E012B43D834
:10569000204600F0E5FA284B1D68EDB9274E284F4B
:1056A0004FF02003EFF3118183F3118823692BB1AD
:1056B00060691A682261834208BF626181F31188C0
:1056C0008BB132681A6072685D60336002B97360D2
:1056D000384612F0E1FFE3E76B6813B1217A204608
:1056E00098472D69D9E7A3781BB904F1700013F02E
:1056F000FFFABFF35B8F043454E8003F43F04003EC
:1057000044E80032002AF7D1BFF35B8F002109483B
:10571000BDE8F84013F010BE022D03D12046FFF77C
:1057200059FDACE7012D03D1237A002BA7D0F5E773
:10573000F8BD00BFC85F00201C020020C802002086
:105740001C5F002010B50B4C024604F14000FFF72F
:1057500051FD68B1637A033B012B08D8238893423B
:1057600005D104F14000FFF763FD204610BD002085
:1057700010BD00BF3002002038B50D46044600F1D0
:10578000440107222846FAF752FF60B1E378072266
:1057900033B904F152012846BDE83840FAF747BF53
:1057A00004F14B01F7E738BD10B50B4C014604F18D
:1057B0004000FFF71FFD08B9002010BDA378002BA3
:1057C000FAD12046FFF7D8FF0028F5D104F14000B8
:1057D000FFF72EFD204610BD3002002038B50E4CDC
:1057E000034604F140000D46FFF704FD08B9002010
:1057F00038BDA278002AFAD13BB9637AAB42F6D120
:105800000648FFF715FD044838BD19462046FFF746
:10581000B3FF0028EBD1F0E7300200207002002037
:1058200010B504464030FFF703FD204610BD403060
:10583000FFF7F1BC437A013B70B505460E46032BDA
:1058400003D8DFE803F0060D0F0D6FF03804204693
:1058500070BD29720021FFF7E7FE0020FEF73EFB36
:105860000024F4E7032140F20640FEF74BF904461A
:1058700098B10321083012F085F92B8803808670D7
:10588000214640F20640FEF761F904460028DED1C9
:1058900004212846FFF7C8FED9E76FF03604D6E7A3
:1058A000F8B507460D4642F213000E21FEF72AF91D
:1058B0000646C8B10E21083012F064F900210446F2
:1058C0000E22FAF7F5FE3B8823802B8863806B88D5
:1058D000A380AB88E380EB882381314642F213003A
:1058E000BDE8F840FEF732B96FF03600F8BD0000B1
:1058F00038B50A88B0F85A309A4204460D460CD89A
:105900004A889A4209D3B0F860208B889A4204D121
:10591000B0F86220CB889A421AD004F1700013F0DC
:10592000E7F90D4B93F878309A0703D594F8643073
:105930009B0701D4E3782BB929462046BDE83840BF
:10594000FFF7AEBF29462046BDE8384000F030BA28
:105950006FF0440038BD00BF905E002007B530F8FE
:10596000143CADF8003030F8123CADF8023030F89D
:10597000103CADF80430694630F80E3CADF8063006
:105980007038FFF7B5FF03B05DF804FB38B5074B7F
:105990000D46002808BF18464FF0FF3112F01CF8E2
:1059A000291D044612F071F8204638BDC86B00204E
:1059B0002DE9F04106460D4600210846FFF7E6FFB7
:1059C0003378032B044605D012F0BCF8002420469F
:1059D000BDE8F081C389114E0344133323F0030360
:1059E000002200F108071A603846B6F8888012F0E5
:1059F0006EF980450CD2B6F8886055F8081F32461B
:105A0000384612F0C5F83146284612F026F9DEE78E
:105A1000384612F05CF986B2EFE700BF905E0020D6
:105A2000F8B5437A054693B9BFF35B8F031D53E87E
:105A3000002F22F0400143E80014002CF7D1BFF3FF
:105A40005B8F530603D5BDE8F840FFF759BD002131
:105A500005F1280012F000F8044628B9404080F310
:105A600011884FF0040002DF194E8189B6F88820B2
:105A7000914207D800231A4621462846FFF7B4FC76
:105A800040B1F8BD05F1090701463846FFF790FF20
:105A9000014620B92046BDE8F84012F053B8012372
:105AA00000222846FFF7A0FC0028F3D0A289B6F810
:105AB00088309A4202D800230122DDE72146384689
:105AC000FFF776FF01460028E4D001231A46E8E7F5
:105AD000905E0020034BC01A034BC0105843C0B265
